:020000040000FA
:08000000803102288731FD2F39
:100F800021000E128E120E138E1322000E168E16D4
:100F90000E178E1722000E128E120E138E1762304D
:100FA000F0006630890BD22FF00BD22F22000E12E8
:100FB0008E120E178E136230F0006630890BDE2F12
:100FC000F00BDE2F22000E168E120E138E136230DF
:100FD000F0006630890BEA2FF00BEA2F22000E1288
:100FE0008E160E138E136230F0006630890BF62FCA
:100FF000F00BF62FCA2F8031022820008731C02F36
:020000040001F9
:04000E00E4C9FFFD45
:00000001FF
