:020000040000FA
:08000000803102288731FD2F39
:100F800021000E128E120E138E1323000D128D12DD
:100F900021008D170D178D160D1622000E128E12C0
:100FA0000E138E1320000D1ED62FD72FDA2F2200FE
:100FB0000E12DC2F22000E1620008D1EE02FE12FD6
:100FC000E42F22008E12E62F22008E1620000D1F25
:100FD000EA2FEB2FEE2F22000E13F02F22000E1718
:100FE00020008D1FF42FF52FF82F22008E13D22F03
:100FF00022008E17D22F8031022820008731C02F87
:020000040001F9
:04000E00E4C9FFFD45
:00000001FF
